S013000057617465724865617465722E73726563B5
S11300000C9439000C9456000C9456000C94560031
S11300100C9456000C9456000C94EE080C949C0816
S11300200C94C5080C9473080C944A070C94180794
S11300300C9456000C9456000C9456000C945600E4
S11300400C9456000C9456000C9456000C94C9035E
S11300500C9456007100750079007D0081008500C4
S1130060890011081B0825082F08390843084D0882
S1130070570811241FBECFE5D8E0DEBFCDBF10E086
S1130080A0E6B0E0E0EBF4E102C005900D92A237E7
S1130090B107D9F720E0A2E7B0E001C01D92A23A6F
S11300A0B207E1F70E94AE040C94560A0C940000C7
S11300B0813039F018F0833039F008C03E983E980A
S11300C005C03E9A3F9802C03F9A3F9A862F90E01F
S11300D0FC013197E730F105F8F4E65DFF4F0C942D
S11300E0410A309A3198329817C03098319A329830
S11300F013C0309A319A32980FC030983198329A9E
S11301000BC0309A3198329A07C03098319A329A9B
S113011003C0309A319A329A3D98379A089526B19D
S11301202F7B30E4839FC0011124822B86B908956C
S113013097B1907E97B997B1892B87B984B195B15E
S11301400895982F9695969596958770613009F441
S113015090C018F06230E9F10895913099F028F0D8
S1130160923051F19330D9F008954AB321E030E050
S1130170B90102C0660F771F8A95E2F7CB01842B81
S11301808ABB089547B321E030E0B90102C0660F8D
S1130190771F8A95E2F7CB01842B87BB089541B37F
S11301A021E030E0B90102C0660F771F8A95E2F7BB
S11301B0CB01842B81BB089544B321E030E0B90125
S11301C002C0660F771F8A95E2F7CB01842B84BBAC
S11301D008959130C1F028F09230C9F1933029F19B
S11301E008954AB321E030E0B90102C0660F771FD9
S11301F08A95E2F7CB01962F909594239ABB9BB3F3
S1130200892B8BBB089547B321E030E0B90102C0CC
S1130210660F771F8A95E2F7CB01962F909594236A
S113022097BB98B3892B88BB089541B321E030E094
S1130230B90102C0660F771F8A95E2F7CB01962FAA
S11302409095942391BB92B3892B82BB089544B3B8
S113025021E030E0B90102C0660F771F8A95E2F70A
S1130260CB01962F9095942394BB95B3892B85BB92
S113027008959130C1F028F09230C9F1933029F1FA
S113028008954AB321E030E0B90102C0660F771F38
S11302908A95E2F7CB018095942F98239ABB9BB360
S11302A089238BBB089547B321E030E0B90102C034
S11302B0660F771F8A95E2F7CB018095942F9823D8
S11302C097BB98B3892388BB089541B321E030E0FC
S11302D0B90102C0660F771F8A95E2F7CB018095BA
S11302E0942F982391BB92B3892382BB089544B37E
S11302F021E030E0B90102C0660F771F8A95E2F76A
S1130300CB018095942F982394BB95B3892385BB07
S11303100895982F97708695869586958130C9F0B3
S113032028F08230E1F1833039F108952BB341E0B4
S113033050E0092E02C0440F551F0A94E2F7842F9F
S11303408095822301C0660F9A95EAF7682B6BBBF0
S1130350089528B341E050E0092E02C0440F551F10
S11303600A94E2F7842F8095822301C0660F9A9540
S1130370EAF7682B68BB089522B341E050E0092EE8
S113038002C0440F551F0A94E2F7842F80958223FC
S113039001C0660F9A95EAF7682B62BB089525B3EE
S11303A041E050E0092E02C0440F551F0A94E2F7C1
S11303B0842F8095822301C0660F9A95EAF7682BF3
S11303C065BB0895982F977086958695869581309C
S11303D099F028F0823051F18330D9F008954BB36D
S11303E021E030E0B90102C0660F771F9A95E2F769
S11303F0CB0184278BBB089548B321E030E0B901D9
S113040002C0660F771F9A95E2F7CB01842788BB59
S1130410089542B321E030E0B90102C0660F771FAE
S11304209A95E2F7CB01842782BB089545B321E076
S113043030E0B90102C0660F771F9A95E2F7CB014D
S1130440842785BB0895813041F028F0823039F04B
S1130450833039F008956BBB089568BB089565BB7C
S1130460089562BB089580917500089580E00E940C
S1130470020581E00E9402056AE080E00E94C9044E
S11304806AE081E00E94C90460E08CE10E94A1005E
S11304900895CF93809174008F5F843119F0809315
S11304A0740083C0109274000E941207813009F016
S11304B060C00E940F07CDEC8C9FC12D1124C695FE
S11304C0C695C6952C2F220F922F990F990F920F34
S11304D0682F691B80E00E94C9046C2F81E00E9490
S11304E0C90440917200509173004C5E5F4F509369
S11304F07300409372009A01369527953695279597
S113050036952795A5ECB0E20E94470A929582950C
S11305108F7089279F70892768EE73E0869F90010A
S1130520879F300D969F300D112442175307C1F455
S11305308CE10E94E20180917500882369F081308A
S1130540A1F51092750061E080E00E94CF0461E0A3
S113055081E00E94CF0429C081E08093750025C00A
S113056061E080E00E94CF0461E081E00E94CF045A
S11305701CC00E94B306CDEC8C9FC12D1124C695DE
S1130580C695C6952C2F220F922F990F990F920F73
S1130590682F691B80E00E94C9046C2F81E00E94CF
S11305A0C9041092730010927200CF91089560E014
S11305B08BE00E94A10060E08CE00E94A10060E05A
S11305C08BE00E94890160E08CE00E94890108951B
S11305D0CF9380917600909177000196883E23E036
S11305E0920729F0909377008093760040C0109290
S11305F07700109276000E94B306C82F0E940F075E
S1130600CC23A9F14C2F50E0481B51099A0122F444
S113061022273327241B350B253068F08C1758F418
S113062060E08BE00E94890161E08CE00E94890116
S1130630109278001CC09FEF920F953070F4C81789
S113064060F461E08BE00E94890160E08CE00E942C
S1130650890181E0809378000AC0203140F060E095
S11306608BE00E94890160E08CE00E948901CF91B7
S1130670089580917800089581E00E94FD03089513
S11306801F93CF93DF93182FEB010E9407040E945E
S11306901E04883009F5CE0188279770880F892FAA
S11306A0881F990B9195806A0E9410040E941E0471
S11306B08831A1F48C2F0E9410040E941E048832F9
S11306C079F4812F0E9410040E941E04883251F490
S11306D00E940D0481E007C080E005C080E003C0F3
S11306E080E001C080E0DF91CF911F910895EF92E7
S11306F0FF920F931F93CF93DF93EC018B010E9422
S113070007040E941E04883091F57E01EE2487E0E0
S1130710F822EE0CEF2CEE1CFF08F1948E2D806A6B
S11307200E9410040E941E04883119F58C2F0E9427
S113073010040E941E048832F1F40E9407040E94EF
S11307401E048031D1F48E2D816A0E9410040E940F
S11307501E048034A1F40E941704F80180830E94CF
S11307601E04883571F40E940D0481E00BC080E002
S113077009C080E007C080E005C080E003C080E0DD
S113078001C080E0DF91CF911F910F91FF90EF9016
S113079008951F920F920FB60F9211242F933F9337
S11307A04F935F936F937F938F939F93AF93BF9375
S11307B0EF93FF9380919F00813031F4E091A0008A
S11307C0F091A100099508C0E0919D00F0919E0070
S11307D085EC86BF83B10995FF91EF91BF91AF91ED
S11307E09F918F917F916F915F914F913F912F9145
S11307F00F900FBE0F901F90189580939F0082E07A
S113080080B911B880ED82B984E086BF089584EA86
S113081086BF06B607FEFDCF089584E986BF089516
S113082083B984E886BF06B607FEFDCF089584E841
S113083086BF06B607FEFDCF83B1089581B1887FD8
S1130840089560E08DE00E94A10060E08DE00E94C8
S1130850890108958091790090917A000196883EEB
S113086023E0920729F090937A0080937900089509
S113087010927A00109279000E943903882331F093
S1130880813041F48DE00E94E201089561E08DE041
S11308900E948901089581E080937B000895CF939D
S11308A0DF9300D0CDB7DEB71A820E94D7020E9430
S11308B04C050E9436020E94B6060E9421040E9442
S11308C03C03BE016F5F7F4F80E090E00E9477039E
S11308D089818130D1F060E070E081E00E944003C2
S11308E0EFE1FEE43197F1F700C00000813031F40C
S11308F00E940F0761E070E00E9440038FE19EE4D4
S11309000197F1F700C0000010C0BE016E5F7F4F79
S113091081E090E00E947703813039F48A8191EE7E
S1130920980F9C3210F40E9415070E9448068BE42D
S113093094E00E946E0887EE93E09BBD8ABD20E0A0
S113094040E062E082E00E94730780E00E94610858
S113095078940F900F90DF91CF9108950E944F04E7
S113096080917B008130E1F70E943302811102C043
S11309700E9425050E9449020E945F050E94BA0652
S11309800E9459060E94E8020E942A0410927B00E9
S1130990E7CFE82FF0E0EE59FF4F608308958130F0
S11309A051F028F0823059F0833069F0089582E1E3
S11309B00E948901089583E10E948901089584E1D8
S11309C00E948901089585E10E9489010895CF93C9
S11309D0DF93D82FC62F61E080E00E94CF0461E04E
S11309E081E00E94CF04EC2FF0E0EA59FF4F6081D0
S11309F083E00E94230260E08D2F0E94CF04DF91E8
S1130A00CF910895CF93C82F813059F028F08230C8
S1130A1069F0833081F013C060E082E10E94A1009C
S1130A200EC060E083E10E94A10009C060E084E19F
S1130A300E94A10004C060E085E10E94A1006AE078
S1130A408C2F0E94E704CF910895809160009091CB
S1130A50610001968530910529F09093610080939F
S1130A606000089581E090E09093610080936000BD
S1130A7080917C00E82FF0E0EE59FF4F60810E94E6
S1130A80E70480917C00813019F410927C00089571
S1130A908F5F80937C000895B898B998BA98C09AEB
S1130AA0C19AC29AEDE7F0E081E0808381831282EB
S1130AB08383848315828683878310860895809137
S1130AC064008F5F843119F080936400089581E09D
S1130AD08093640031E073E052E061E001C03F5F65
S1130AE02FEF230F822F90E0FC01EE0FFF1FE80F82
S1130AF0F91FE358FF4F41814083213079F018F00A
S1130B002230C1F02EC026B3FC01EE0FFF1FE80F08
S1130B10F91FE358FF4F217021839BC026B3FC01CA
S1130B20EE0FFF1FE80FF91FE358FF4F26952170C2
S1130B3021838FC026B3FC01EE0FFF1FE80FF91FBE
S1130B40E358FF4F22FB222720F921832281213001
S1130B50B9F1C0F0223009F447C0233009F462C06F
S1130B600895FC01EE0FFF1FE80FF91FE358FF4F34
S1130B702281213029F130F02230B1F1233009F4FF
S1130B8051C063C0FC01EE0FFF1FE80FF91FE358CB
S1130B90FF4F2081211159C0FC01EE0FFF1FE80F08
S1130BA0F91FE358FF4F218121114FC0FC01EE0FC3
S1130BB0FF1F8E0F9F1FFC01E358FF4F628345C048
S1130BC0FC01EE0FFF1FE80FF91FE358FF4F2181CF
S1130BD021113BC0FC01EE0FFF1F8E0F9F1FFC0174
S1130BE0E358FF4F528331C0FC01EE0FFF1FE80FA3
S1130BF0F91FE358FF4F2081213039F5FC01EE0F36
S1130C00FF1FE80FF91FE358FF4F21812130E9F45A
S1130C10FC01EE0FFF1F8E0F9F1FFC01E358FF4FD7
S1130C20728313C0FC01EE0FFF1FE80FF91FE35896
S1130C30FF4F2181213049F4FC01EE0FFF1F8E0F7D
S1130C409F1FFC01E358FF4F1282333008F447CF53
S1130C500895FC01EE0FFF1FE80FF91FE358FF4F43
S1130C602281213009F4ACCF08F48CCF223009F46E
S1130C70BBCF233009F033CFD5CF90E0FC01EE0F8A
S1130C80FF1F8E0F9F1FFC01E358FF4F82810895C1
S1130C9066E081E00E9458002FEF84E39CE021503D
S1130CA080409040E1F700C0000081E00E948F0086
S1130CB00895809165008F5F843619F080936500F4
S1130CC0089581E080936500809188008A3088F5DA
S1130CD080E00E949800BC0180E090E00E944609F8
S1130CE020E030E44CE955E40E94AC0920E030E017
S1130CF040E85AE30E94AC090E9417099B01ADEC3D
S1130D00BCEC0E94470A969587959695879596958B
S1130D1087952091860030918700820F931F9093CE
S1130D20870080938600809188008F5F809388007D
S1130D3016C02091860030918700ADECBCEC0E9477
S1130D40470A969587959695879596958795809366
S1130D50890010928800109287001092860081E02A
S1130D600E948F0008958091890008958CE38093F8
S1130D708E00089580918C008F5F843119F08093E8
S1130D808C00089510928C0080E00E943D06813012
S1130D9099F480918E008B3438F48B5F80938E00AD
S1130DA061E070E00E94400381E080938D00109226
S1130DB08B0010928A001CC081E00E943D068130A5
S1130DC099F480918E008F3138F0855080938E0095
S1130DD061E070E00E94400381E080938D001092F6
S1130DE08B0010928A0004C080918D00813049F4F8
S1130DF080918A0090918B00449690938B0080930D
S1130E008A0080918A0090918B008838934130F059
S1130E1010928D0010928B0010928A000895809198
S1130E208E00089580918D00089580938E0008951A
S1130E301F920F920FB60F9211242F933F934F934B
S1130E405F936F937F938F939F93AF93BF93EF932E
S1130E50FF93E0919900F0919A00309751F0099531
S1130E6080918F00909190000196909390008093D0
S1130E708F00FF91EF91BF91AF919F918F917F91DF
S1130E806F915F914F913F912F910F900FBE0F90F3
S1130E901F9018951F920F920FB60F9211242F9343
S1130EA03F934F935F936F937F938F939F93AF93EE
S1130EB0BF93EF93FF93E0919B00F0919C003097D8
S1130EC009F00995FF91EF91BF91AF919F918F9197
S1130ED07F916F915F914F913F912F910F900FBE32
S1130EE00F901F901895823029F128F4882341F03F
S1130EF0813099F045C0833051F18430A9F140C06C
S1130F008FB58E7F8FBD8FB58D7F8FBD8EB5877F5B
S1130F108EBD8EB58F7E8EBD33C08FB58E7F8FBD57
S1130F208FB58D7F8FBD8EB588608EBD8EB5806187
S1130F308EBD26C08FB58E7F8FBD8FB58D7F8FBD43
S1130F408EB588608EBD8EB58F7E8EBD19C08FB56F
S1130F508E7F8FBD8FB582608FBD8EB588608EBD4C
S1130F608EB580618EBD0CC08FB581608FBD8FB58D
S1130F7082608FBD8EB588608EBD8EB580618EBD5A
S1130F80213069F028F0223089F02330B1F01BC001
S1130F908FB58F7E8FBD8FB58F7D8FBD14C08FB5FC
S1130FA080618FBD8FB58F7D8FBD0DC08FB58F7E56
S1130FB08FBD8FB580628FBD06C08FB580618FBD38
S1130FC08FB580628FBD413069F028F0423089F0DE
S1130FD04330B1F01BC08FB58F7B8FBD8FB58F773A
S1130FE08FBD14C08FB580648FBD8FB58F778FBDD3
S1130FF00DC08FB58F7B8FBD8FB580688FBD06C048
S11310008FB580648FBD8FB580688FBD862F90E0CB
S11310108830910508F054C0FC01EF5CFF4F0C943C
S1131020410A8EB58E7F8EBD8EB58D7F8EBD8EB5F9
S11310308B7F8EBD08958EB581608EBD8EB58D7FFC
S11310408EBD8EB58B7F8EBD08958EB58E7F8EBD81
S11310508EB582608EBD8EB58B7F8EBD08958EB5A4
S113106081608EBD8EB582608EBD8EB58B7F8EBD48
S113107008958EB58E7F8EBD8EB58D7F8EBD8EB557
S113108084608EBD08958EB581608EBD8EB58D7FD2
S11310908EBD8EB584608EBD08958EB58E7F8EBD57
S11310A08EB582608EBD8EB584608EBD08958EB57A
S11310B081608EBD8EB582608EBD8EB584608EBD1E
S11310C00895882319F0813029F0089589B7806143
S11310D089BF089589B78F7E89BF0895909394003E
S11310E08093930008951F920F920FB60F921124CC
S11310F02F933F934F935F936F937F938F939F931C
S1131100AF93BF93EF93FF93E0919100F09192001E
S1131110309709F00995FF91EF91BF91AF919F919D
S11311208F917F916F915F914F913F912F910F908C
S11311300FBE0F901F9018951F920F920FB60F922B
S113114011242F933F934F935F936F937F938F93C8
S11311509F93AF93BF93EF93FF93E0919300F0912C
S11311609400309709F00995FF91EF91BF91AF91E9
S11311709F918F917F916F915F914F913F912F91AB
S11311800F900FBE0F901F9018951F920F920FB6DD
S11311900F9211242F933F934F935F936F937F93F9
S11311A08F939F93AF93BF93EF93FF93E091950039
S11311B0F0919600309709F00995FF91EF91BF9156
S11311C0AF919F918F917F916F915F914F913F91DB
S11311D02F910F900FBE0F901F9018951F920F9292
S11311E00FB60F9211242F933F934F935F936F93F6
S11311F07F938F939F93AF93BF93EF93FF93E0916C
S11312009700F0919800309709F00995FF91EF91BC
S1131210BF91AF919F918F917F916F915F914F910A
S11312203F912F910F900FBE0F901F9018950E9421
S11312308B0988F09F5798F0B92F9927B751B0F0D0
S1131240E1F0660F771F881F991F1AF0BA95C9F746
S113125014C0B13091F00E94A509B1E008950C9436
S1131260A509672F782F8827B85F39F0B93FCCF3E9
S1131270869577956795B395D9F73EF490958095C3
S1131280709561957F4F8F4F9F4F0895E89409C0E3
S113129097FB3EF490958095709561957F4F8F4FA5
S11312A09F4F9923A9F0F92F96E9BB279395F695BB
S11312B0879577956795B795F111F8CFFAF4BB0F39
S11312C011F460FF1BC06F5F7F4F8F4F9F4F16C09D
S11312D0882311F096E911C0772321F09EE8872F27
S11312E0762F05C0662371F096E8862F70E060E0E3
S11312F02AF09A95660F771F881FDAF7880F96955C
S1131300879597F9089557FD9058440F551F59F044
S11313105F3F71F04795880F97FB991F61F09F3FDE
S113132079F087950895121613061406551FF2CF07
S11313304695F1DF08C0161617061806991FF1CF57
S113134086957105610508940895E894BB2766277E
S11313507727CB0197F908950E94BF090C94300AAE
S11313600E94220A38F00E94290A20F0952311F0E5
S11313700C94190A0C941F0A11240C94A6090E94B7
S1131380830970F3959FC1F3950F50E0551F629F39
S1131390F001729FBB27F00DB11D639FAA27F00DCA
S11313A0B11DAA1F649F6627B00DA11D661F829FF1
S11313B02227B00DA11D621F739FB00DA11D621FD6
S11313C0839FA00D611D221F749F3327A00D611DF3
S11313D0231F849F600D211D822F762F6A2F1124D5
S11313E09F5750409AF0F1F088234AF0EE0FFF1F08
S11313F0BB1F661F771F881F91505040A9F79E3F5F
S1131400510580F00C94190A0C94A6095F3FE4F38B
S1131410983ED4F3869577956795B795F795E795B4
S11314209F5FC1F7FE2B880F911D9695879597F9BD
S1131430089597F99F6780E870E060E008959FEF52
S113144080EC089500240A94161617061806090657
S1131450089500240A941216130614060506089526
S1131460092E0394000C11F4882352F0BB0F40F4AE
S1131470BF2B11F460FF04C06F5F7F4F8F4F9F4FEE
S11314800895EE0FFF1F0590F491E02D0994A29F9B
S1131490B001B39FC001A39F700D811D1124911D44
S11314A0B29F700D811D1124911D0895F894FFCFF2
S11314B001000A0001013F065B4F666D7D077F6FE7
S10514C0000026
S9030000FC
